:020000040800F2
:1000000000500020B92A0008190300081B0300084B
:100010001D0300081F030008210300080000000062
:1000200000000000000000000000000023030008A2
:10003000250300080000000027030008290300082A
:10004000012B0008012B0008012B0008012B0008E0
:10005000012B0008012B0008012B0008012B0008D0
:10006000012B0008012B0008012B0008012B0008C0
:10007000012B0008012B0008012B0008012B0008B0
:10008000012B0008012B0008012B0008012B0008A0
:10009000012B0008012B0008012B0008012B000890
:1000A000012B0008012B0008012B0008012B000880
:1000B000012B0008012B0008012B0008012B000870
:1000C000012B0008012B0008012B0008012B000860
:1000D000012B000835030008012B0008012B000844
:1000E000012B0008012B0008012B00080000000074
:1000F0000000000000000000000000000000000000
:0C01000000000000000000005FF808F1A3
:1001100010B5054C237833B9044B13B10448AFF341
:1001200000800123237010BD70000020000000003B
:10013000E43A00080C4B43B10C4810B50C49AFF33E
:1001400000800C48036823B910BD0A48036833B91E
:100150007047094B002BF7D0BDE810401847064BFD
:10016000002BF5D0184700BF00000000E43A00085B
:1001700074000020700000200000000010B588B05E
:10018000184B9A6942F020029A619A6902F02002A3
:100190000192019A9A6942F008029A619A6902F002
:1001A00008020292029A9A6942F004029A619B69DB
:1001B00003F004030393039B0B4C01224FF4E04133
:1001C000204601F0C7F84FF4E04304930123059360
:1001D000002306930323079304A9204600F0C4FFDD
:1001E00008B010BD00100240000C0140FEE7000006
:1001F00008B50B480B4B03604FF4E1334360002319
:100200008360C36003610C2242618361C36100F0BB
:1002100009FB00B908BDD8210348FFF7E7FF00BF7D
:100220001805002000380140103B000808B50C48B4
:100230000C4B03601023436000238360C3600361A1
:1002400043618361C361036243628362C36200F0FE
:100250002DF900B908BDC5210348FFF7C7FF00BF4E
:10026000D404002000640040103B000800B591B0A9
:10027000012206924FF480330793002108910A92DD
:1002800002220D920E934FF4E0130F9306A800F094
:1002900063FC08BB0F230193022102910023039307
:1002A0004FF480620492059301A800F07BFEB8B978
:1002B00000F034FF0C4BA3FB0030800901F0F0F894
:1002C000042001F003F9002211464FF0FF3001F045
:1002D000A9F811B05DF804FB96210448FFF786FFEA
:1002E000A4210248FFF782FFD34D6210103B0008A3
:1002F00008B500F0E3FBFFF7B9FFFFF73FFFFFF79B
:1003000077FFFFF793FF01F00BF901F0ADF901F072
:10031000C3F901F005FAF8E77047FEE7FEE7FEE7EC
:10032000FEE770477047704708B500F0D9FB01F051
:10033000DEF808BD08B5024800F002FB08BD00BFAA
:100340001805002000B583B0244B9A6942F00102E1
:100350009A619A6902F001020092009ADA6942F009
:100360008052DA61DB6903F080530193019B032023
:1003700001F046F8002211466FF00B0001F052F830
:10038000002211466FF00A0001F04CF800221146DD
:100390006FF0090001F046F8002211466FF00400EA
:1003A00001F040F8002211466FF0030001F03AF826
:1003B000002211466FF0010001F034F800221146CE
:1003C0004FF0FF3001F02EF8054A536823F0E06348
:1003D00043F00073536003B05DF804FB001002406B
:1003E000000001400268144B9A4200D0704710B5DB
:1003F00086B003F5D633DA6942F00072DA61DB6960
:1004000003F000730193019B4FF4006302930023F8
:1004100003930493094C02A9204600F0A5FE4FF473
:1004200080530293022303930323059302A92046DA
:1004300000F09AFE06B010BD0064004000080140C4
:100440000268184B9A4200D0704730B587B003F568
:1004500058439A6942F480429A619B6903F480434D
:100460000193019B4FF40073029302230393032330
:1004700005930D4D02A9284600F076FE4FF48063E7
:10048000029300240394049402A9284600F06CFE11
:1004900022462146252000F0C5FF252000F0F4FF6C
:1004A00007B030BD0038014000080140002800F0CE
:1004B0009C8038B5044690F83C3003B3022384F89E
:1004C0003C302268136823F002031360226813682B
:1004D00043F00103136000F00FFB054623685A68E0
:1004E00012F0010F10D100F007FB401B0A28F5D9CC
:1004F000032084F83C00002384F83D3038BD80F8A8
:100500003D30FFF76FFFD9E75A6812F0010F5DD059
:10051000A269012A43D00022E169012941D022F0D9
:100520004002216A01293FD022F02002616A01299C
:100530003DD022F01002A16A01293BD022F008022E
:10054000E16A012939D022F00402196821F0FC0186
:100550000A431A602168A368E268134322691343BF
:10056000626913436268013A1343CB6122681368DE
:1005700023F00103136000F0BFFA054623685A68B0
:1005800012F0010F1CD000F0B7FA401B0A28F5D971
:10059000032084F83C00002384F83D3038BD8022DD
:1005A000BAE742F04002BCE742F02002BEE742F068
:1005B0001002C0E742F00802C2E742F00402C4E7BA
:1005C0005B6813F0010F08D0002300E0002333B96B
:1005D000042384F83C30012038BD0123F7E70020D4
:1005E0002064012384F83C3038BD01207047026844
:1005F000D36823F49073D3600268536923F0010336
:100600005361202380F83A30704790F83930DBB2DC
:10061000212B01D0022070478368B3F5805F17D08B
:100620000268036A591C01621B785360C38C9BB239
:10063000013B9BB2C384DBB90268D36823F080031B
:10064000D3600268D36843F04003D3600020704752
:10065000036A02681B88C3F30803536003691BB96C
:10066000036A02330362E1E7036A01330362DDE7F1
:10067000002070472DE9F04705460268136923F40E
:100680004053C1680B431361836802691343426995
:1006900013430168CA6822F4B05222F00C021343DB
:1006A000CB600268536923F4407381690B43536143
:1006B000D0F80080594B984557D000F035FD00EB3D
:1006C000800000EB80006C68A400B0FBF4F4544F91
:1006D000A7FB04346409260100F026FD00EB80002E
:1006E00000EB80006C68A400B0FBF4FA00F01CFD85
:1006F00000EB800000EB80006C68A400B0FBF4F419
:10070000A7FB043464094FF0640909FB14A4240115
:100710003234A7FB0434640904F0F004344400F0DC
:1007200003FD00EB800000EB80006E68B600B0FBBC
:10073000F6F600F0F9FC00EB800000EB80006B683F
:100740009B00B0FBF3F0A7FB0030400909FB1069E8
:100750004FEA091909F13209A7FB0937C7F3431713
:100760002744C8F80870BDE8F08700F0EDFC00EB06
:10077000800000EB80006C68A400B0FBF4F4284F0C
:10078000A7FB04346409260100F0DEFC00EB8000C6
:1007900000EB80006C68A400B0FBF4FA00F0D4FC1D
:1007A00000EB800000EB80006C68A400B0FBF4F468
:1007B000A7FB043464094FF0640909FB14A4240165
:1007C0003234A7FB0434640904F0F004344400F02C
:1007D000BBFC00EB800000EB80006E68B600B0FB55
:1007E000F6F600F0B1FC00EB800000EB80006B68D7
:1007F0009B00B0FBF3F3A7FB03235B0909FB136921
:100800004FEA091909F13209A7FB0937C7F3431762
:100810002744C8F80870BDE8F08700BF00380140E1
:100820001F85EB5158B310B5044690F839300BB31F
:10083000242384F839302268D36823F40053D3602A
:100840002046FFF717FF2268136923F490431361D2
:100850002268536923F02A0353612268D36843F462
:100860000053D3600020E063202384F8393084F8FB
:100870003A3010BD80F83830FFF7E2FDD8E70120AC
:100880007047704708B50168CB6823F04003CB6020
:10089000202380F83930FFF7F4FF002008BD7047AF
:1008A00008B590F83A30DBB2222B01D0022008BD07
:1008B0008368B3F5805F0FD003690BBB836A5A1C52
:1008C0008262026852681A70C38D9BB2013B9BB270
:1008D000C385F3B1002008BD826A036943B9036888
:1008E0005B68C3F308031380836A02338362EBE718
:1008F00003685B68DBB21380836A01338362E3E7DA
:10090000826A531C836203685B6803F07F03137081
:10091000DAE70268D36823F02003D3600268D36863
:1009200023F48073D3600268536923F00103536199
:10093000202380F83A30FFF7B2FF002008BD70474F
:1009400010B5044602681368D168526913F00F00AD
:1009500005D113F0200F02D011F0200F53D1002841
:1009600067D012F0010202D111F4907F61D013F030
:10097000010F06D011F4807F03D0E06B40F001003E
:10098000E06313F0040F04D01AB1E06B40F00200F2
:10099000E06313F0020F04D01AB1E06B40F00400E2
:1009A000E06313F0080F04D01AB1E26B42F00802C2
:1009B000E263E26B002A48D013F0200F02D011F05E
:1009C000200F24D123685B6903F04003E26B12F02F
:1009D000080F00D13BB32046FFF709FE23685A6990
:1009E00012F0400F1BD05A6922F040025A61636B2B
:1009F0008BB11A4A5A63606B00F0B6FC28B3606B87
:100A0000436B984710BD2046FFF74AFF10BD2046B4
:100A1000FFF746FFD6E72046FFF791FF10BD2046BF
:100A2000FFF78DFF10BD2046FFF789FF0023E3632A
:100A300010BD13F0800F02D011F0800F06D113F01B
:100A4000400F02D011F0400F04D110BD2046FFF737
:100A5000DCFD10BD2046FFF715FFF6E7610A000830
:100A600008B5406A0023C385C384FFF768FF08BD4B
:100A700010B504460E4B18784FF47A73B3FBF0F3BD
:100A80000C4A1068B0FBF3F000F00AFD68B90F2CB7
:100A900001D9012010BD002221464FF0FF3000F0A7
:100AA000C1FC054B1C60002010BD012010BD00BF23
:100AB00000000020080000200400002008B5074ABC
:100AC000136843F010031360032000F099FC00202A
:100AD000FFF7CEFFFFF736FC002008BD00200240E4
:100AE000034A1168034B1B780B441360704700BF27
:100AF0007405002000000020014B1868704700BFFB
:100B00007405002038B50446FFF7F6FF0546B4F13A
:100B1000FF3F02D0044B1B781C44FFF7EDFF401B46
:100B20008442FAD838BD00BF0000002082B0084BD4
:100B30001B68084AA2FB03235B0A00FB03F0019039
:100B400000BF019B5A1E0192002BF9D102B07047E1
:100B500008000020D34D621070B582B004460368CF
:100B600013F0010F3DD0AC4B5B6803F00C03042B7A
:100B70002ED0A94B5B6803F00C03082B23D06368CD
:100B8000B3F5803F51D0002B55D103F1804303F5DD
:100B900004331A6822F480321A601A6822F4802220
:100BA0001A606368002B60D0FFF7A6FF05469A4BDA
:100BB0001B6813F4003F14D1FFF79EFF401B64280D
:100BC000F5D90320AFE1944B5B6813F4803FD6D096
:100BD000914B1B6813F4003F03D06368002B00F0B7
:100BE0009F81236813F0020F65D08B4B5B6813F075
:100BF0000C0F4ED0884B5B6803F00C03082B43D0DE
:100C00002369002B79D00122844B1A60FFF774FF0F
:100C10000546814B1B6813F0020F65D1FFF76CFF8F
:100C2000401B0228F5D903207DE17B4A136843F479
:100C300080331360B5E7B3F5A02F09D0764B1A685F
:100C400022F480321A601A6822F480221A60A8E71F
:100C500003F18043A3F53C331A6842F480221A6002
:100C60001A6842F480321A609BE7FFF745FF054699
:100C7000694B1B6813F4003FB3D0FFF73DFF401BE7
:100C80006428F5D903204EE1634B5B6813F4803F81
:100C9000B6D1614B1B6813F0020F04D02369012BFE
:100CA00001D001203FE15C4A136823F0F803616939
:100CB00043EAC1031360236813F0080F32D0A3691D
:100CC000002B6ED00122564B1A60FFF715FF054628
:100CD000514B5B6A13F0020F21D1FFF70DFF401B50
:100CE0000228F5D903201EE14B4A136823F0F803CC
:100CF000616943EAC1031360DDE70022474B1A60D4
:100D0000FFF7FAFE0546444B1B6813F0020FD2D0E2
:100D1000FFF7F2FE401B0228F5D9032003E1012072
:100D2000FFF704FF236813F0040F00F099803A4B9B
:100D3000DB6913F0805F46D1374BDA6942F08052AD
:100D4000DA61DB6903F080530193019B0125354B88
:100D50001B6813F4807F38D0E368012B49D0002B47
:100D60004DD103F1804303F504331A6A22F00102E6
:100D70001A621A6A22F004021A62E368002B5DD03C
:100D8000FFF7BAFE0646244B1B6A13F0020F66D12A
:100D9000FFF7B2FE801B41F288339842F3D903205B
:100DA000C1E000221E4B1A60FFF7A6FE05461A4B53
:100DB0005B6A13F0020FB5D0FFF79EFE401B0228BE
:100DC000F5D90320AFE00025C1E7164A136843F4C4
:100DD00080731360FFF790FE0646124B1B6813F4F6
:100DE000807FB9D1FFF788FE801B6428F5D90320E6
:100DF00099E0094A136A43F001031362BDE7052B2A
:100E000012D0054B1A6A22F001021A621A6A22F005
:100E100004021A62B1E700BF001002400000424223
:100E20008004424200700040414B1A6A42F00402C2
:100E30001A621A6A42F001021A629EE7FFF75CFE2C
:100E400006463B4B1B6A13F0020F08D0FFF754FE17
:100E5000801B41F288339842F3D9032063E0E5B95F
:100E6000E369002B5ED0324A526802F00C02082A75
:100E70005BD0022B17D000222E4B1A60FFF73CFEEE
:100E800004462B4B1B6813F0007F47D0FFF734FE5E
:100E9000001B0228F5D9032045E0254AD36923F039
:100EA0008053D361DCE70022224B1A60FFF724FE57
:100EB00005461F4B1B6813F0007F06D0FFF71CFE92
:100EC000401B0228F5D903202DE0236AB3F5803FAB
:100ED0001AD017494B6823F47413226A606A0243DC
:100EE00013434B600122134B1A60FFF705FE0446C3
:100EF0000F4B1B6813F0007F0ED1FFF7FDFD001BA9
:100F00000228F5D903200EE0094A536823F4003380
:100F1000A1680B435360DCE7002004E0002002E0FE
:100F2000012000E0002002B070BD0120FBE700BFFF
:100F3000001002406000424210B586B0154C94E8A3
:100F40000F000DF1180E0EE90F00238AADF80430E2
:100F5000114B5B6803F00C02082A18D1C3F38342DB
:100F6000724412F8102C13F4803F03D10B4800FB9D
:100F700002F00DE0084B5B68C3F34043734413F881
:100F8000143C074800FB02F0B0FBF3F000E004481B
:100F900006B010BDFC3A00080010024000093D00F8
:100FA00000127A00594B1B6803F007038B420CD2E6
:100FB000564A136823F007030B431360136803F0CA
:100FC0000703994201D00120704770B5036813F000
:100FD000020F06D04E4A536823F0F003846823437F
:100FE00053600D460446036813F0010F52D0436866
:100FF000012B23D0022B28D0454A126812F0020F91
:1010000000F0828042494A6822F0030213434B6099
:10101000FFF772FD06466368012B1DD0022B2AD014
:101020003B4B5B6813F00C0F34D0FFF765FD801B62
:1010300041F288339842F3D9032070BD344A1268D4
:1010400012F4003FDED1012070BD314A126812F067
:10105000007FD7D1012070BD2D4B5B6803F00C03DE
:10106000042B17D0FFF748FD801B41F288339842CC
:10107000F2D9032070BD264B5B6803F00C03082BEC
:1010800008D0FFF739FD801B41F288339842F2D92E
:10109000032070BD1D4B1B6803F007039D420CD25B
:1010A0001A4A136823F007032B431360136803F0F5
:1010B00007039D4201D0012070BD236813F0040F87
:1010C00006D0134A536823F4E063E1680B4353608E
:1010D000236813F0080F07D00D4A536823F46053B8
:1010E000216943EAC1035360FFF726FF084B5B68A1
:1010F000C3F30313074AD35CD840074B18600020A2
:10110000FFF7B6FC002070BD012070BD002002403A
:10111000001002408C3B000808000020014B1868BA
:10112000704700BF0800002008B5FFF7F7FF044B29
:101130005B68C3F30223034AD35CD84008BD00BFF9
:10114000001002409C3B000808B5FFF7E7FF044B86
:101150005B68C3F3C223034AD35CD84008BD00BF19
:10116000001002409C3B0008F0B583B000263446D6
:1011700071E0002D00F0A180012D00D1CE68FF2B81
:1011800000F2AF808646FF2B00F2AE80A500DEF8AD
:1011900000200F27AF4022EA070206FA05F52A438E
:1011A000CEF800204A6812F0805F53D0634A9569F8
:1011B00045F001059561926902F001020192019AE0
:1011C000A508AF1C5E4A52F8272004F00307BF00B1
:1011D0004FF00F0E0EFA07FE22EA0E02DFF870E162
:1011E000704500F088800EF5806E704500F08680B6
:1011F0000EF5806E704500F084800EF5806E7045AF
:1012000076D04FF0040E0EFA07F73A4302354C4FF2
:1012100047F825204A6812F4803F75D0494D2A6866
:101220001A432A604A6812F4003F73D0454D6A6839
:101230001A436A604A6812F4801F71D0414DAA684F
:101240001A43AA604A6812F4001F6FD03D4DEA6845
:101250001343EB6001340F2C6ED80122A2400B68BF
:1012600013409A42F6D14D68122D30D00BD8022D82
:101270002AD07FF67EAF032D2FD0112D7FF47FAFC4
:10128000CE6804367BE7304FBD4216D00CD92F4FC5
:10129000BD4212D007F58037BD420ED0A7F58017AA
:1012A000BD427FF46CAF08E0A7F58017BD4204D0C3
:1012B00007F58037BD427FF462AF8D687DB1012DA7
:1012C00008D0426108265AE7CE68083657E7CE684C
:1012D0000C3654E70261082651E700264FE7042642
:1012E0004DE700F1040E4EE7A4F10805AD004EE70E
:1012F0004FF0030E87E74FF0000E84E74FF0010E2A
:1013000081E74FF0020E7EE70E4D2A6822EA0302C3
:101310002A6087E70B4D6A6822EA03026A6089E760
:10132000084DAA6822EA0302AA608BE7054DEA6825
:1013300022EA0303EB608DE703B0F0BD001002402A
:1013400000000140000401400000211000003110A5
:101350000008014012B9090401617047016170473A
:10136000C3685940C160704708B590F82130022B1E
:1013700003D004238363012008BD0268136823F0AF
:101380000E0313600268136823F0010313600368FF
:10139000194A934214D0143293421FD0143293420C
:1013A0001ED0143293421ED0143293421ED01432F7
:1013B000934202D04FF0807203E04FF4801200E0BD
:1013C00001220E4B5A60012380F82130002380F85F
:1013D0002030436B6BB19847002008BD1022F0E726
:1013E0004FF48072EDE74FF48052EAE74FF4803219
:1013F000E7E7002008BD00BF0800024000000240EF
:10140000074AD36823F4E0631B041B0C000200F4BA
:10141000E060184340F0BF6040F40030D060704797
:1014200000ED00E030B4164BDB68C3F30223C3F1D8
:101430000704042C28BF04241D1D062D17D9033BC7
:10144000012505FA04F4013C2140994005FA03F313
:10145000013B1340194300280BDB0901C9B200F11D
:10146000604000F5614080F8001330BC70470023F5
:10147000E6E700F00F000901C9B2024B1954F4E786
:1014800000ED00E014ED00E0420900F01F00012330
:1014900003FA00F0014B43F82200704700E100E03E
:1014A0000138B0F1807F0AD2064B5860F021064A1D
:1014B00082F823100020986007221A6070470120EC
:1014C000704700BF10E000E000ED00E0042805D008
:1014D000054A136823F0040313607047024A136837
:1014E00043F004031360704710E000E0704708B554
:1014F000FFF7FCFF08BD0000012B01D00020704762
:10150000012A01D00020704703A3D3E90023C1E9D9
:1015100000230120704700BF9E6AC421818A46EEE5
:10152000F0B585B0FFF700FE00230293ADF80C3054
:10153000424CA4FB0034A40C0923591CB4FBF1F267
:1015400001FB124222B1022B73D9013BDBB2F4E75B
:10155000B4FBF1F14A1EB2F5806F6CD2C3EBC30647
:10156000F21C22D4D210D5B25F1BFFB2AB421ED9FF
:10157000D2B24FF47A7402FB04443A440132B4FB11
:10158000F2F292B2B2F5617F05D9751E16D4C5F399
:10159000C7055B1BDFB26B1EDBB20F2B10D8002F11
:1015A0003CD0082F3CD900220BE00732DAE7244B6D
:1015B000244A40F21511244801F0A4FA0735E6E761
:1015C0000022EB1903FB0113B0FBF3F01F4B984211
:1015D00028D13AB3ADF8081001238DF80C308DF8FE
:1015E0000A508DF80B70002303B101BE002102A840
:1015F00001F0A6F800B101BE154C00230193154B74
:101600000093154B4FF480621449204600F09EFC75
:101610000A21204600F0C4FC05B0F0BD0022D0E74E
:101620000122CEE70E4B074A40F22F11064801F087
:1016300069FA0C4BD8E70B4BD6E700BF83DE1B43A0
:101640004C3B00081C3B0008603B000840420F0078
:101650008C000020F914000855180008B000002084
:10166000883B000818FCFFFF08B50A4800F069FD38
:1016700004E001BE07E0074800F063FD48B101F057
:1016800045F90028F5DB0028F5DD024800F05FFD94
:10169000F1E708BD8C00002000B585B0684601F078
:1016A000BFF910B905B05DF804FBFFF725FA4FF458
:1016B0007A7202FB00F200236946024800F0E6FD60
:1016C000F0E700BF8C00002030B583B00446002551
:1016D0008DF807508DF806500560C0F80350FFF7ED
:1016E0000BFA0E4BA3FB0030800902AB43F8080D48
:1016F00020222946204600F033FD0DF10703022287
:101700002021204600F02CFD0DF1060303222221AA
:10171000204600F025FD03B030BD00BFD34D621060
:1017200010B588B0FFF7E8F9154B1B6803F5FA739D
:10173000984201D208B010BDFFF7DEF9104B1860D7
:101740004FF480510F48FFF70BFE06AC2046FFF721
:10175000BBFF072304930394182302930A4B0193BE
:1017600040F25513009304A3D3E90023074800F087
:1017700037FCDFE7AFF30080F1C6A7C1D068080FE0
:10178000B0040020000C0140B40400208C000020B4
:10179000002302E0C3540133DBB20F2BFAD97047A8
:1017A00030B583B0044640F27912002101F009FA05
:1017B0002046FFF789FF6323E371237201236372DD
:1017C00002AB0E4A43F8042D20225021204600F09F
:1017D000C7FC04F11800FFF7DBFF094B07CBC4F887
:1017E0002900C4F82D10C4F831201A889B78A4F879
:1017F000352084F83730382003B030BDFE0FDCBA16
:101800003C3B00080000000030B5E7B0044607ADDF
:1018100040F279120021284601F0D3F92846FFF75B
:10182000BFFFE17E0590049500230393A37E0293FE
:10183000193401940123009304A3D3E9002302483F
:1018400000F031FC67B030BD8C0000209E6AC421DE
:10185000818A46EE08B50B7E012B00D008BDCB8AED
:10186000012BFBD10846FFF7CFFFF7E70F4B1A68B4
:1018700042F001021A6059680D4A0A405A601A681B
:1018800022F0847222F480321A601A6822F48022D4
:101890001A605A6822F4FE025A604FF41F029A60DE
:1018A0004FF00062034B9A60704700BF0010024087
:1018B0000000FFF800ED00E0091A89B208B2002824
:1018C00000DB7047203108B2FBE710B421F0604420
:1018D00020F06042C30FB3EBD17F0FD0002909DBAA
:1018E000002809DB944217D094422CBF002001202D
:1018F00010BC7047A40CF3E7920CF3E7C1F38071BE
:10190000C0F38070944204D094422CBF0020012088
:10191000EEE78142ECD1F7E71846E9E710F0800FD7
:1019200001D10220704710F4004F01D10020704710
:101930000120704710B50446FFF7F0FF022802D0DF
:10194000C4F3074010BDC4F30F2014F07F0FF9D18A
:1019500000F0030010BD20B103698B4201D0006884
:10196000F9E770470020704780EA0120002307E074
:10197000400080B280F4815080F001000133DBB27E
:10198000072B05D810F4004FF2D1400080B2F5E7E4
:10199000704770B516461D46002410E0C4F12002C1
:1019A000A4F1200326FA04F105FA02F2114325FA04
:1019B00003F31943C9B2FFF7D7FF0834A4B23F2C91
:1019C000ECD970BD38B505E04D1C0978FFF7CCFFA8
:1019D00022462946541E002AF6D138BD30B40546A9
:1019E000002304E001EB43142C60254601339342AD
:1019F000F8D300232B608280C380038130BC704702
:101A000002685AB113680360C38801339BB2C38074
:101A100001898B4204D9038110467047002070472A
:101A20001046704708B5FFF7EBFF034608B10022E8
:101A30000260184608BD2DE9F84FCC8AC4F30904AA
:101A4000062C1CD0254626460024052E02D89FB21F
:101A5000BC420AD39EB2B44212D33544CB8A65F35A
:101A60000903CB820120BDE8F88F12F804E08F193A
:101A700087F81AE00136B6B20134A4B2E5E70024D3
:101A8000994693460E468246CD8AC5F30905AA1F9C
:101A90001C23B2FBF3F803FB18281FFA88F84F68E1
:101AA00087BBFFF7BFFF07467060002847D04FF0A5
:101AB00000081FFA89F18C423DD3F28AC2F3090370
:101AC0000B4463F30902F2820120BDE8F88F013272
:101AD00092B21F463B68002BF9D109EB0503063B88
:101AE0001C25B3FBF5F39BB201339BB29A42E0D2C3
:101AF000B8F1000FDDD15046FFF794FF386010B306
:101B00000746D6E70122E5E71BF80400BB18187169
:101B1000013292B20134A4B21B2A01D88C42F3D311
:101B20008C420AD25046FFF77DFF386078B14FF003
:101B300000080746BDE74246EEE73846F9E76FF092
:101B40000200BDE8F88F6FF00200BDE8F88F6FF07B
:101B50000200BDE8F88F00002DE9F04190B10D467C
:101B600080460B7CABB1C769D7B13E463C464CB30F
:101B700069686068FFF7A9FEB0B923682646F3B12B
:101B80001C46F4E7104B114A4FF46F71104800F0F7
:101B9000B9FF104B0D4A40F2BD310D4800F0B2FFC5
:101BA000C8F81C10BDE8F081BC4203D035602C6041
:101BB000BDE8F0812C60C8F81C50BDE8F0812560BC
:101BC000BDE8F081BDE8F0812C3D0008143C000820
:101BD000E43D0008F83D000808B540B10378013342
:101BE000DBB203701F2B01D90023037008BD034B28
:101BF000034A40F25531034800F084FFA43D000839
:101C0000F03B0008E43D000808B503680B60016084
:101C1000C38813B1013BC38008BD034B034A40F2A4
:101C20002F61034800F06EFF743D0008583C000827
:101C3000E43D000870B506460C4605E00D6806F167
:101C40000C00FFF7E1FF656061680029F6D1E38AC7
:101C50006FF30903E3820020002170BD08B54368DB
:101C60007BB9C37DC3F38402013262F38603C3757B
:101C7000C38A6FF30903C3821B0A6FF3C713C375CB
:101C800008BD034B034A40F22641034800F03AFFE7
:101C9000C03D0008203C0008E43D00082DE9F84361
:101CA000089F4AB14FEAD10E03EBD70301F00701B9
:101CB00007F007070A4431E01A4B1B4A4FF4A661AC
:101CC0001A4800F01FFF01F0070807F0070C46460E
:101CD000E04538BF6646C6F10806541AA64228BF3A
:101CE00026464FF47F45F540EDB245FA0CF5CC0899
:101CF00000EB0E0919F8044004FA08F424FA0CF475
:101D0000E4B24FEAD70813F808C084EA0C042C4068
:101D10008CEA040C03F808C0314437449142D2D114
:101D2000BDE8F883403D0008383C0008E43D000869
:101D300010B518B10246013900230CE0074B084AE0
:101D400040F2C551074800F0DDFED05C545CD4542D
:101D50005054013301398B42F7D310BD143E0008B3
:101D6000483C0008E43D000808B5FFF749FE03467B
:101D700028B10022026042608260C260026118469F
:101D800008BD00002DE9F04F83B0009201930C9E36
:101D9000BDF8345098B18B46824611F0604F15D192
:101DA000009B002B76D00DB1002E76D0072D14D9D4
:101DB0004FF080094FF000084446474657E03D4B3E
:101DC0003D4A40F265313D4800F09CFE3C4B3A4AAA
:101DD00040F26631394800F095FE0AF10C00FFF739
:101DE000C3FF044600285BD02A463146083000F085
:101DF000DDFE6B1C2374009B1B7803F01F0343F074
:101E0000C00325442B724BF00043636021465046CB
:101E1000FFF7A2FE012748E0002306E0305DCA1864
:101E200010720133DBB20134A4B2062B01D8AC42EC
:101E3000F4D3AC422BD04FEA4812D2B249EA02099D
:101E4000009A127802F01F0249EA0209CA1882F8C1
:101E500008904BF000424A6001330B745046FFF784
:101E60007BFE01373FB288F001084FF00009AC4219
:101E70001BD00AF10C00FFF777FF014698B1002C48
:101E8000CAD1019A0A72130A43720223CDE74FF0B6
:101E90004009D0E76FF0010707E06FF0010704E0A9
:101EA0006FF0020701E06FF00207384603B0BDE8AB
:101EB000F08F00BF2C3D0008043C0008E43D000802
:101EC000503D000830B589B004460D46202200215F
:101ED000684600F076FE04952046FFF791FD054622
:101EE00050B16C460FCC28606960AA60EB600FCCE3
:101EF00028616961AA61EB61284609B030BD10B55F
:101F000004460C30FFF7DEFF034610B1A269026001
:101F1000A061184610BD38B504460D46806928B149
:101F2000FFF719FD034650B1184638BD04F10C0007
:101F3000FFF7C8FF03460028F6D0A061F4E7294662
:101F40002046FFF7DCFF0346EEE70000F8B5D8B106
:101F50000E4615461F4604462422002100F031FE9D
:101F600000232370A760069B6360079B23626A09B6
:101F7000B2F5803F01D34FF6FF7292B2314604F1C1
:101F80000C00FFF72BFDF8BD024B034A4F2103481D
:101F900000F0B8FD283D0008A43B0008E43D00081F
:101FA00008B538B102785AB951B111F0800F07D194
:101FB000017008BD054B064A7321064800F0A2FDDA
:101FC000054B034A7D21034800F09CFD2C3D000891
:101FD000B03B0008E43D0008883B000800787047EB
:101FE0002DE9F04A85B0BDF830409DF838B00F9E1D
:101FF000BDF840709EB3BBF11F0F4BD8CDE9022353
:102000000546FFF7EBFF814670BB072F45D834F03C
:10201000030345D13A4631464FF6FF70FFF7D2FC35
:1020200020F001004004400C400240EA0B6B240207
:1020300004F440744BEA040444EA09094FF6FF73C0
:10204000019700960D9A49462846FFF79BFE0446E5
:102050000D98FFF7C1FD204605B0BDE8F08A002FBE
:10206000C9D06FF00100F7E7240244EA0B6444EAA8
:102070000009072F0BD9DDE902234FF6FF70FFF7A8
:1020800088FC3A463146FFF79DFC0346D8E74FF6F9
:10209000FF73D5E76FF00100DEE76FF00300DBE7C9
:1020A0006FF00100D8E72DE9F04F83B09DF838407C
:1020B0009DF83CA0109EBDF8447016B31F2C3AD872
:1020C000904699468B460546FFF788FFB0B39DF8CA
:1020D00030301B0443EA046444EACA3444EA0B2463
:1020E000044344F08004072F10D942464B464FF674
:1020F000FF70FFF74EFC3A463146FFF763FC03469C
:1021000006E0002FDAD06FF001000CE04FF6FF730D
:10211000019700960D9A21462846FFF733FE0446A4
:10212000BAF1010F02D003B0BDE8F08F0D98FFF7B0
:1021300053FD2046F7E76FF00100F4E76FF003006E
:10214000F1E7C06908B1043070470020704708B556
:10215000C1690B68C3610C30FFF756FD08BD000074
:10216000F0B585B0002830D00E4614460546002B49
:1021700032D0402A37D8002A3CD000220292039263
:10218000012C3ED0082C41D81B788DF8083001274F
:10219000002F4ED0FFF7E6FB002851D114F0070FB7
:1021A0000AD004AB03EBD40111F8083C624202F000
:1021B0000702934001F8083C00962B462246002176
:1021C00002A8FFF76BFD05B0F0BD204B204A4FF48D
:1021D0002A71204800F096FC1F4B1D4A40F2A921AD
:1021E0001C4800F08FFC1D4B194A40F2AD211948E4
:1021F00000F088FC194B164A40F2B321154800F054
:1022000081FC1B788DF808302746C1E7102C04D8D4
:102210001B88ADF808300227BAE7202C03D81B68CA
:1022200002930427B4E7D3E90023CDE9022308276A
:10223000AEE70B4B064A40F2D321064800F062FCA1
:10224000394602A8FFF774FDA8E700BF643C000808
:10225000DC3B0008E43D0008803C0008883B0008A7
:10226000983C000870B506460C4605E00D6806F17E
:102270000C00FFF7C9FCE560E1680029F6D10023F6
:10228000E360A3602361A38270BD00002DE9F04FDD
:1022900093B007460D46CDE902230C682046FFF7B0
:1022A0003DFB0646022806D0C4F30628002C05DBB9
:1022B00013B0BDE8F08F4FF00008F7E714F0C04FFF
:1022C000F6D195F80C90B9F1000FF1D0022E04D0A0
:1022D0003846FFF783FE8045EAD1C4F304630693D2
:1022E00004F07F0A2046FFF725FB079040EA0643EB
:1022F00043EA8A4343EA486809F1FF39A94499F857
:1023000004905FEAD91B1CD012A90022002361E9C6
:1023100008237C68CDF800A0334602463846A04723
:102320000028C5D041463846FFF7F5FD0446002891
:10233000BED0DDE90A234FF6FF70FFF72AFBA0822B
:1023400006E04146B869FFF706FB04460028AFD017
:102350003CB3D4E90223DDE90201CDE90423801A6C
:1023600061EB0301CDE90801E07D09F01F0841465A
:10237000C0F38400FFF7A0FA8646DDE90423134387
:1023800018D0A84A0023DDE908018B4208BF824229
:1023900054D3BBF1000F53D0BEF1010F08DD012370
:1023A00009E0A14BA14A4FF49D71A14800F0AAFB9E
:1023B000002300E00123002B44D1BBF1000F02D029
:1023C00019F0400F53D1C9F34013E27DB3EBD21F94
:1023D0007FF46EAFC2F3840398457FF469AFBBF11D
:1023E000000F76D019F0400F73D12B7B032B7FF6B3
:1023F0005FAFDDE90223C4E90223AE1D2B7B033B63
:10240000DBB23246214607F10C00FFF714FB00282F
:1024100057DB2B796A7943EA022323832A7B033A29
:10242000D2B23146A08AFFF7CDFAA082E37DDA432B
:10243000C2F3C01262F3C713E37539E70123BAE7A9
:102440000023B8E7E37D69F386036FF3C713E375F1
:1024500021463846FFF7EEFBBBF1000FADD1E37D1F
:10246000C3F38402013262F38603E37520E7DDE9FA
:102470000223C4E90223202200210AA800F0A1FBC4
:10248000DDE90223CDE90A232B1D0C932B7B013BB5
:10249000DBB2ADF83C30BDF81C30ADF83E308DF805
:1024A00040608DF841809DF818308DF842308DF8ED
:1024B00043A0BB680AA9384698472046FFF7CEFBE1
:1024C000F6E621463846FFF7B5FB2046FFF7C6FB88
:1024D000EEE6BBF1000F02D119F0400F09D0297BC5
:1024E0000139C9B2E28AC2F30902052A61D8002380
:1024F00025E02E1D2B7B013BDBB23246214607F146
:102500000C00FFF798FA002808DB2A7B013AD2B2C8
:102510003146A08AFFF756FAA08287E7214638465F
:10252000FFF788FB2046FFF799FBC1E6E81890F813
:1025300004E0A01880F81AE001320133DBB2052A6A
:1025400001D88B42F2D3DDE902BCCDE90ABC04F12B
:102550001A020C9262680D928B425CD22B440433B7
:102560000E93E38AC3F309031944ADF83C10BDF898
:102570001C30ADF83E308DF840608DF841809DF8FC
:1025800018308DF842308DF843A0002363602A7B19
:10259000013A291DA08AFFF715FAA082238B9842E1
:1025A0003BD00AA93846FFF75DFE2046FFF756FBF1
:1025B0007EE6606810B14FF0060E04E00023C2E72B
:1025C0000EF11C0E18460368002BF9D128B1A2EBBE
:1025D0000E021B2A08D8002318E0164B134A4FF4AA
:1025E000D871134800F08EFA134B104A40F2B31121
:1025F0000F4800F087FA05EB030E9EF804C000EBCD
:10260000020E8EF804C001320133DBB21B2A9AD8C5
:102610008B42F0D397E70023A2E7BB680AA93846AC
:102620009847BEE780841E00AC3C0008C83B000809
:10263000E43D0008C43C0008DC3C000830B420F055
:10264000604521F06044CB0FB3EBD07F0FD0002862
:1026500009DB002909DBA54218D0A5422CBF0020C8
:10266000012030BC7047AD0CF3E7A40CF3E7C0F3D6
:102670008072C1F38071A54204D0A5422CBF002016
:102680000120EEE78A42F8D00846EAE71846E8E774
:10269000021E06DB500512F0804F01D040F0020010
:1026A0007047D30043F00400F5E710F0040F07D1A2
:1026B000430D10F0020F01D043F0804318467047DD
:1026C000C30843F00043F4E70D4B9B6913F0700F10
:1026D00015D000220A4B9A610A49D1E9022301323E
:1026E00043F10003C1E90223074B1B7823B9044BD4
:1026F0009B6913F0040F02D0044A014B9A607047A3
:1027000000640040B8040020B504002080808000F0
:1027100070B506460D460024B4F57A7F0BD2736877
:1027200003F00103DBB2AB4207D00120FEF7EAF968
:102730000134A4B2F0E7002070BD012070BD00009C
:10274000022900F2B480002800F0B48038B5038874
:10275000002B00F0B280B3F5806F00F2B1800379F6
:10276000002B00F0B080042B00F2B0808378002BA7
:1027700000F0AF80102B00F2AF80C378002B00F088
:10278000AE80082B00F2AE800C460546574A002367
:10279000136053609360D360022914BF00210121AC
:1027A000534A117053484361036823F002030360E6
:1027B000036843F0010303600121FFF7A9FF00282C
:1027C00057D061224B4B1A602B79013B1B0603F05B
:1027D0004073AA78013A120402F470221343EA7893
:1027E000013A120502F4E00213432A88013AC2F3C7
:1027F00009021343012C43D0002213433D4AD36105
:102800005369002B3FD13B48036823F00103036069
:102810000021FFF77DFF00283BD0364AD2F8003276
:1028200023F47C5323F00E0343F4606343F001036D
:10283000C2F80032D2F80032C3F305230E2B2FD199
:102840002C4B0020C3F804026FF07042C3F80C2236
:10285000294AC3F81422C3F84002C3F844020122F3
:10286000C3F81C22D3F8002222F00102C3F8002290
:1028700038BD4FF400421F4B1A606FF47A7038BDB8
:102880004FF00042B9E71D4B1D4AEA211D4800F0F8
:1028900039F94FF40042174B1A60A0F2EA3038BD04
:1028A000194B174A4FF48071164800F02BF96FF05E
:1028B000010070476FF0010070476FF0010038BDF4
:1028C0006FF0010038BD6FF0010038BD6FF00100FE
:1028D00038BD6FF0010038BD6FF0010038BD6FF0FA
:1028E000010038BD6FF0010038BD00BFB804002002
:1028F000B504002000640040AAAAAA0A543E0008B9
:10290000303E00088C3E0008B43E0008002875D018
:1029100070B582B00546036813F0005F71D1FFF710
:10292000D3FE394B9B6803F0E053B3F1E05F5CD01A
:10293000354B9A68C2F380628DF804209A68C2F31E
:10294000C0628DF805209B68C3F300738DF80630D4
:102950000024FF2602E026460134E4B2022C13D8FC
:1029600002AB234413F8043C002BF4D104F1180308
:102970001B01254AD058FFF798FE01462868FFF74B
:102980005DFE0028E8D127E0FF2E27D0022E2ED8AA
:10299000340104F1804404F5CB442B7B6360EA7A74
:1029A000AB7A1B0443EA02636A7A43EA02232A7A77
:1029B0001343E360EA79AB791B0443EA02636A7963
:1029C00043EA02232A791343A3602868FFF760FED5
:1029D00040F001002060012002B070BD0B4B0C4A9A
:1029E00040F25F110B4800F08DF80026CEE70A4B4D
:1029F000074A40F26911074800F084F86FF00100BF
:102A000070470648E8E700BF00640040003F000848
:102A1000403E00088C3E0008103F000815FCFFFFF8
:102A2000002840D070B50646FFF74EFE0023012B6C
:102A300037D81E4C04EB03141D4A52F823502A6861
:102A400012F0030F01D10133F1E72B6813F0100FDF
:102A500007D01849D1E90023013243F10003C1E94D
:102A600000232068FFF721FE3060636803F00F0346
:102A70003373A268E3683271C2F307217171C2F344
:102A80000741B171120EF2713372C3F307227272F1
:102A9000C3F30742B2721B0EF37238232B6001207E
:102AA00070BD002070BD6FF001007047B065004040
:102AB000283E0008B8040020002103E00B4B5B58BF
:102AC000435004310A480B4B42189A42F6D30A4A43
:102AD00002E0002342F8043B084B9A42F9D3FEF788
:102AE000C5FE00F03FF8FDF703FC7047FC3F00080F
:102AF0000000002070000020700000207C050020F5
:102B0000FEE700001FB51C46094B05461B68D86848
:102B100052B1084B8DE80A0002922B462246064924
:102B200000F00EF800F0ECFB044B1A46F2E700BF91
:102B30000C000020203F00082D3F00085B3F0008EC
:102B40000EB403B5014603AB054853F8042B0068E7
:102B5000019300F067F802B05DF804EB03B0704732
:102B60000C00002070B500250C4E0D4CA41BA410C9
:102B7000A54209D100F0B6FF00250A4E0A4CA41B5D
:102B8000A410A54205D170BD56F8253098470135EF
:102B9000EEE756F8253098470135F2E7F43F000894
:102BA000F43F0008F43F0008F83F000810B5431E4A
:102BB0000A44914200D110BD11F8014B03F8014FB6
:102BC000F7E703460244934200D1704703F8011B24
:102BD000F9E7936810B4013B002B936008DA94691D
:102BE000A34202DBCBB20A2B02D110BC00F0C8BA60
:102BF0001368581C10601970C8B210BC7047F8B543
:102C000006460F461446D518AC4201D1002007E015
:102C10003A4614F8011B3046FFF7DBFF431CF3D1A3
:102C2000F8BD00002DE9F04F9DB00C461746039308
:102C3000064618B183690BB900F05CFC7C4B9C42E2
:102C400057D17468A38918075DD52369002B5AD022
:102C50000023099320238DF8293030234FF0010BF6
:102C60008DF82A30B846454615F8013B002B55D162
:102C7000B8EB070A0BD053463A4621463046FFF7D9
:102C8000BEFF013000F0C480099B5344099398F8BB
:102C90000030002B00F0BC8000234FF0FF32049383
:102CA0000793059206938DF853301A9305222978DD
:102CB000604800F00DFD05F10108049B002831D1AA
:102CC000D90644BF20228DF853201A0744BF2B2277
:102CD0008DF853202A782A2A2CD000210A20079A1E
:102CE000A84698F800300135303B092B6DD971B3F7
:102CF00026E0514B9C4201D1B468A3E74F4B9C4264
:102D000008BFF4689EE72146304600F08BFA0028A1
:102D10009ED04FF0FF301DB0BDE8F08F252BA7D01F
:102D2000A846A0E7434A4546801A0BFA00F018432C
:102D30000490BBE7039A111D12680391002A01DB7E
:102D4000079204E0524243F002030792049398F87A
:102D500000302E2B10D198F8013008F101012A2BF8
:102D600037D1039B08F102081A1D1B680392002B40
:102D7000B8BF4FF0FF330593314D032298F8001090
:102D8000284600F0A5FC40B14023401B03FA00F0A8
:102D9000049B08F101080343049398F800100622ED
:102DA000284808F101078DF8281000F091FC002850
:102DB00034D0254B03BB039B073323F007030833B1
:102DC0000393099B4B4409934CE700FB023201211A
:102DD00086E700230A2518460593884698F80020C0
:102DE0000131303A092A03D9002BC5D00590C3E739
:102DF00005FB00200123F0E703AB00932246134BB1
:102E000004A93046AFF30080B0F1FF3F8146D8D12E
:102E1000A3895B063FF57DAF09987CE703AB009380
:102E200022460A4B04A9304600F08AF8ECE700BFBE
:102E3000B43F0008603F0008D43F0008943F0008FA
:102E4000663F00086A3F000800000000FF2B0008F2
:102E50002DE9F04791461F468A680B690646934262
:102E6000B8BF1346C9F8003091F843200C46DDF88E
:102E7000208012B10133C9F800302368990642BF9F
:102E8000D9F800300233C9F80030256815F006057E
:102E900007D104F1190AE368D9F800209B1A9D4272
:102EA0002ADB94F843302268003318BF01239206CE
:102EB0002FD404F1430239463046C047013022D0B6
:102EC0002368E56803F00603042B18BF0025D9F832
:102ED00000204FF0000908BFAD1AA368226908BF9F
:102EE00025EAE5759342C4BF9B1AED181A344D4587
:102EF0001BD10020BDE8F0870123524639463046F9
:102F0000C047013003D14FF0FF30BDE8F0870135F5
:102F1000C1E73020E11881F843005A1C94F84510AD
:102F20002244023382F84310C3E701232246394684
:102F30003046C0470130E6D009F10109D7E700006B
:102F40002DE9F04317460A7E85B06E2A984606465C
:102F50000C460C9B01F1430E00F0BC801AD8632A8A
:102F60002ED00AD8002A00F0C880582A00F08A80A3
:102F700004F1420584F842202AE0642A01D0692A3B
:102F8000F6D121681A6811F0800F23D0111D196045
:102F9000136827E0732A00F0B48008D86F2A2AD07B
:102FA000702AE5D10A6842F020020A6003E0752A1F
:102FB00021D0782ADCD178226F4984F8452064E05A
:102FC0001A6801F14205111D1960136884F8423036
:102FD0000123A3E011F0400F02F104011960D7D0E2
:102FE000B2F90030002B03DA2D225B4284F8432033
:102FF00062490A2217E02068196810F0800F03D098
:10300000081D18600B6806E010F0400F01F1040085
:103010001860F7D00B886F2A14BF0A22082257497C
:10302000002084F843006568002DA560C0F29C80F4
:10303000206820F004002060002B3FD1002D40F0DC
:1030400095807546082A0BD12368DA0708D52369CD
:1030500062689A42DEBF302305F8013C05F1FF3576
:10306000AEEB05032361CDF800803B4603AA214661
:103070003046FFF7EDFE013055D14FF0FF3005B07F
:10308000BDE8F08381F845203C492268186812F0B9
:10309000800F00F104051D6001D0036802E05506B1
:1030A000FBD50388D00744BF42F0200222601BB941
:1030B000226822F0200222601022B1E77546B3FB9D
:1030C000F2F002FB1033CB5C05F8013D034600280B
:1030D000F5D1B7E708681A6810F0800F496904D085
:1030E000101D18601368196007E010F0400F02F11E
:1030F000040018601368F6D0198000237546236118
:10310000B1E71A68111D1960156800216268284628
:1031100000F0DEFA08B1401B6060636823610023A1
:1031200084F843309FE723692A4639463046C04732
:103130000130A2D023689B0707D5002504F11909A7
:10314000E368039A9B1A9D4205DBE068039B984263
:10315000B8BF184693E701234A4639463046C04770
:1031600001308AD00135EBE7002BA7D10B7804F1B1
:10317000420584F8423065E7823F0008713F00084D
:10318000F8B50E461446054618B183690BB900F030
:10319000B1F9214B9C422AD16C68A369A360A38931
:1031A0001A072ED5236963B323692068F6B2C01AC3
:1031B00063693746984204DB2146284600F030F91F
:1031C00028BBA3680130013BA36023685A1C22601E
:1031D0001E706369984204D0A389DB0719D50A2EB3
:1031E00017D12146284600F01BF990B10FE00B4B98
:1031F0009C4201D1AC68D0E7094B9C4208BFEC6807
:10320000CBE72146284600F00DF80028CCD04FF03F
:10321000FF373846F8BD00BFB43F0008D43F000870
:10322000943F0008324B70B51D6806460C4625B128
:10323000AB6913B9284600F05DF92E4B9C420FD1C3
:103240006C68B4F90C309AB215072CD4D00611D49E
:103250000922326043F04003A3814FF0FF3070BD7C
:10326000254B9C4201D1AC68EBE7244B9C4208BF44
:10327000EC68E6E7510712D5616B41B104F14403F4
:10328000994202D0304600F031FA00236363A389EB
:1032900023F02403A3810023636023692360A389AF
:1032A00043F00803A38123694BB9A38903F4207376
:1032B000B3F5007F03D02146304600F0C9F9A2895A
:1032C00012F001030CD00023A36063695B42A36189
:1032D000236953B9B4F90C3013F08000BAD170BD32
:1032E000920758BF6369A360F2E70020F7E700BFC9
:1032F0000C000020B43F0008D43F0008943F0008B1
:1033000008B5062000F0D4FA012000F0E9FB000027
:103310008A892DE9F041054610070C465AD44B68BE
:10332000002B05DC0B6C002B02DC0020BDE8F081DB
:10333000E66A002EF9D0002312F480522F682B6029
:1033400033D0606DA3895A0705D56368C01A636BD3
:103350000BB1236CC01A00230246E66A216A284694
:10336000B047431CA38906D129681D294BD82B4A95
:10337000CA40D60747D5002262602269D90422607C
:1033800004D5421C01D12B6803B96065616B2F60C5
:103390000029CAD004F14403994202D0284600F023
:1033A000A5F900206063BDE8F081216A0123284669
:1033B000B047411CC6D12B68002BC3D01D2B01D0B8
:1033C000162B01D12F60B0E7A38943F04003A381FE
:1033D000BDE8F0810F69002FA7D0930718BF002325
:1033E0000E6808BF4B69A6EB07080F608B60B8F149
:1033F000000F9ADD43463A46216A2846A66AB0473E
:10340000002807DCA38943F04003A3814FF0FF307D
:10341000BDE8F0810744A8EB0008E8E70100402080
:1034200038B50B6905460C46DBB118B183690BB999
:1034300000F060F80C4B9C4209D16C68B4F90C3078
:103440007BB121462846BDE83840FFF761BF074BF6
:103450009C4201D1AC68F1E7054B9C4208BFEC6887
:10346000ECE7002038BD00BFB43F0008D43F00089F
:10347000943F0008014900F0A9B800BF21340008BA
:10348000002310B504460360436083608181436676
:10349000C281036143618361194608225C30FFF7F2
:1034A00090FB054B24626362044BA362044BE3620E
:1034B000044B236310BD00BFE93800080B39000836
:1034C000433900086739000870B568254A1E55431E
:1034D0000E4605F1740100F055F9044640B1002193
:1034E00080E842000C30A06005F16802FFF769FB3C
:1034F000204670BD836910B5044633BB8364C36442
:103500000365124B124A1B688262984204BF012372
:10351000836100F01FF86060204600F01BF8A06097
:10352000204600F017F80022E06004216068FFF7F1
:10353000A7FF01220921A068FFF7A2FF02221221A2
:10354000E068FFF79DFF0123A36110BD5C3F000809
:1035500075340008F8B51C4B07461E68B36913B9EB
:103560003046FFF7C7FF4836B4687368013B03D5A0
:10357000336833B13668F7E7B4F90C506DB168348D
:10358000F4E704213846FFF79FFF30600028F1D1AF
:103590000C2304463B602046F8BD4FF6FF73E381E1
:1035A00001236566A3812560A5606560256165616D
:1035B000A5610822294604F15C00FFF702FB656360
:1035C000A563A564E564E6E75C3F00082DE9F843E0
:1035D00080468946002600F1480414B93046BDE80B
:1035E000F883A5686768013F01D52468F5E7AB89D2
:1035F000012B07D9B5F90E30013303D029464046D7
:10360000C84706436835EEE770B50E46B1F90E10AF
:1036100090B0002914461D4607DA00232B60B389B9
:103620001A0610D44FF480630EE001AA00F0C2F92C
:103630000028F2DB029A02F47042A2F500535A42CB
:103640005A412A60EEE740230020236010B070BD8D
:103650008B8973B59D0706460C4607D504F14703D1
:10366000236023610123636102B070BD01AB6A4630
:10367000FFF7CAFF00990546304600F083F848B9C5
:10368000B4F90C309A05EFD423F0030343F002039E
:10369000A381E3E70D4BB362A389206043F080036D
:1036A000A381009B20616361019B5BB1B4F90E10A3
:1036B000304600F091F928B1A38923F0030343F0C9
:1036C0000103A381A3891D43A581CDE775340008BB
:1036D00010B5C9B202449042034601D1002010BD8A
:1036E0001C7801308C42F6D1184610BD38B505461D
:1036F000002943D051F8043C0C1F002BB8BFE4183C
:1037000000F08CF91E4A1368104633B963601460E8
:103710002846BDE8384000F082B9A3420BD92168A1
:103720006218934201BF1A685B6852182260636096
:103730000460EDE713465A680AB1A242FAD9196843
:103740005818A0420BD120680144581882421960D1
:10375000DED110685268014419605A60D8E702D976
:103760000C232B60D4E7206821188A4201BF11681E
:1037700052680918216062605C60C9E738BD00BF0B
:10378000C804002070B5CD1C25F0030508350C2DAC
:1037900038BF0C25002D064601DBA94203D90C23B6
:1037A0003360002070BD00F039F9234A14682146C7
:1037B00091B9224C23681BB9304600F041F82060D3
:1037C0002946304600F03CF8431C26D10C233046F5
:1037D000336000F024F9E4E70B685B1B1AD40B2B71
:1037E0000FD90B60CC18CD50304600F018F904F119
:1037F0000B00231D20F00700C31A1BD05A42E250D1
:1038000070BD8C420BBF63684B681360636018BF68
:103810000C46E9E70C464968CAE7C41C24F00304D7
:10382000A04205D0211A304600F00AF80130CDD070
:103830002560D9E770BD00BFC8040020CC0400207B
:1038400038B50023054C05460846236000F032F9E0
:10385000431C02D1236803B12B6038BD78050020DA
:103860001F2938B504460D4604D9162303604FF0CE
:10387000FF3038BD426C12B152F821304BB92046AE
:1038800000F030F82A4601462046BDE8384000F0F6
:1038900017B8012B0AD0591C03D11623036001204D
:1038A00038BD0024284642F825409847002038BDFE
:1038B000024B01461868FFF7D3BF00BF0C00002081
:1038C00038B50023064C054608461146236000F033
:1038D000D9F8431C02D1236803B12B6038BD00BF67
:1038E0007805002000F0BEB810B50C46B1F90E10F6
:1038F00000F096F80028ABBF636DA3891B1823F472
:103900008053ACBF6365A38110BD2DE9F0411F4614
:103910008B890546DB050C46164605D50223002299
:10392000B1F90E1000F068F8A389324623F48053F1
:10393000A381B4F90E103B462846BDE8F04100F0E3
:1039400017B810B50C46B1F90E1000F055F8431C2D
:10395000A38915BF606523F4805343F48053A3818A
:1039600018BFA38110BDB1F90E1000F013B800000C
:1039700038B50546084611460022054C22601A4615
:1039800000F0A6F8431C02D1236803B12B6038BDB8
:103990007805002038B50023054C0546084623600D
:1039A00000F050F8431C02D1236803B12B6038BDEE
:1039B0007805002038B50023064C05460846114618
:1039C000236000F047F8431C02D1236803B12B6049
:1039D00038BD00BF7805002038B50023054C0546EA
:1039E0000846236000F046F8431C02D1236803B167
:1039F0002B6038BD7805002038B5054608461146CD
:103A00000022054C22601A4600F044F8431C02D103
:103A1000236803B12B6038BD7805002070477047DC
:103A200038B50546084611460022054C22601A4664
:103A300000F038F8431C02D1236803B12B6038BD75
:103A4000780500205822024B4FF0FF301A60704773
:103A5000780500205822024B4FF0FF301A60704763
:103A6000780500205822024B4FF0FF301A60704753
:103A7000780500205822024B00201A60704700BFD2
:103A8000780500205822024B4FF0FF301A60704733
:103A9000780500205822024B4FF0FF301A60704723
:103AA000780500205822024B4FF0FF301A60704713
:103AB00078050020044A05491368002B08BF0B460F
:103AC0001844106018467047D0040020800500207C
:103AD0005822024B4FF0FF301A60704778050020E3
:103AE000FEE700BFF8B500BFF8BC08BC9E467047B3
:0C3AF000F8B500BFF8BC08BC9E4670474B
:103AFC0002030405060708090A0B0C0D0E0F101023
:103B0C00010200005372632F6D61696E2E63000019
:103B1C0063616E61726453544D3332436F6D7075D3
:103B2C00746543414E54696D696E67730000000003
:103B3C00736B7979752E6E6F64652E64656D6F008D
:103B4C006273315F6273325F73756D203E206273F6
:103B5C00310000006C696263616E6172642F647283
:103B6C0069766572732F73746D33322F63616E6176
:103B7C0072645F73746D33322E6800003000000085
:103B8C000000000000000000010203040607080901
:103B9C00000000000102030463616E617264496EEF
:103BAC006974000063616E6172645365744C6F6379
:103BBC00616C4E6F646549440000000063616E6186
:103BCC00726448616E646C6552784672616D650012
:103BDC0063616E617264456E636F64655363616C9F
:103BEC0061720000696E6372656D656E745472610A
:103BFC006E73666572494400656E717565756554C2
:103C0C00784672616D657300707573685478517580
:103C1C006575650070726570617265466F724E6590
:103C2C0078745472616E736665720000636F70799C
:103C3C00426974417272617900000000737761709F
:103C4C00427974654F726465720000006672656536
:103C5C00426C6F636B00000064657374696E617411
:103C6C00696F6E20213D202828766F6964202A29EF
:103C7C003029000076616C756520213D202828765E
:103C8C006F6964202A293029000000007374645F76
:103C9C00627974655F6C656E677468203E203000D5
:103CAC0072785F737461746520213D202828766FCB
:103CBC006964202A29302900626C6F636B20213DD6
:103CCC00202828766F6964202A29302900000000FA
:103CDC006F66667365745F77697468696E5F626C32
:103CEC006F636B203C2028333255202D205F5F62A0
:103CFC0075696C74696E5F6F66667365746F662048
:103D0C002843616E617264427566666572426C6FBF
:103D1C00636B2C2064617461292900006F75745FDA
:103D2C00696E7320213D202828766F6964202A292A
:103D3C00302900007372635F6C656E203E20305535
:103D4C00000000002863616E5F69642026203078D3
:103D5C0031464646464646465529203D3D20636140
:103D6C006E5F696400000000616C6C6F6361746F5E
:103D7C00722D3E737461746973746963732E637509
:103D8C007272656E745F75736167655F626C6F6389
:103D9C006B73203E203000007472616E7366657226
:103DAC005F696420213D202828766F6964202A29C8
:103DBC003029000073746174652D3E62756666650A
:103DCC00725F626C6F636B73203D3D202828766FA9
:103DDC006964202A293029006C696263616E617202
:103DEC00642F63616E6172642E6300006974656D8B
:103DFC002D3E6672616D652E646174615F6C656EDB
:103E0C00203E2030000000006461746120213D20C0
:103E1C002828766F6964202A293029000C64004018
:103E2C001064004063616E61726453544D333249C7
:103E3C006E69740063616E61726453544D33325415
:103E4C0072616E736D69740030203D3D20282876B8
:103E5C006F6C6174696C652043616E61726453545C
:103E6C004D333243414E547970652A2930783430C1
:103E7C0030303634303055292D3E49455200000043
:103E8C006C696263616E6172642F647269766572CB
:103E9C00732F73746D33322F63616E6172645F7351
:103EAC00746D33322E63000028282828766F6C61DD
:103EBC0074696C652043616E61726453544D333286
:103ECC0043414E547970652A29307834303030367D
:103EDC0034303055292D3E464D52203E3E2038552B
:103EEC0029202620307833465529203D3D20313479
:103EFC0055000000212243414E205052494F204989
:103F0C004E56220074785F6D61696C626F78203C4C
:103F1C00203300002C2066756E6374696F6E3A2036
:103F2C0000617373657274696F6E20222573222091
:103F3C006661696C65643A2066696C65202225733C
:103F4C00222C206C696E65202564257325730A006C
:103F5C0010000020232D302B2000686C4C0065666F
:103F6C0067454647003031323334353637383941BE
:103F7C0042434445460030313233343536373839D4
:103F8C0061626364656600000000000000000000D0
:103F9C000000000000000000000000000000000015
:103FAC000000000000000000000000000000000005
:103FBC0000000000000000000000000000000000F5
:103FCC0000000000000000000000000000000000E5
:103FDC0000000000000000000000000000000000D5
:083FEC000000000000000000CD
:043FF400350100088B
:043FF80011010008AB
:103FFC00010000001000000000A24A041000002084
:10400C0000000000B43F0008D43F0008943F0008B3
:10401C000000000000000000000000000000000094
:10402C000000000000000000000000000000000084
:10403C000000000000000000000000000000000074
:10404C000000000000000000000000000000000064
:10405C000000000000000000000000000000000054
:0400000508002AB90C
:00000001FF
